{
	"Downloads/Fintech_Workspace/Module_20_challenge/joint_savings.sol": {
		"JointSavings": {
			"abi": [
				{
					"constant": false,
					"inputs": [],
					"name": "deposit",
					"outputs": [],
					"payable": true,
					"stateMutability": "payable",
					"type": "function"
				},
				{
					"constant": false,
					"inputs": [
						{
							"internalType": "address payable",
							"name": "account1",
							"type": "address"
						},
						{
							"internalType": "address payable",
							"name": "account2",
							"type": "address"
						}
					],
					"name": "setAccounts",
					"outputs": [],
					"payable": false,
					"stateMutability": "nonpayable",
					"type": "function"
				},
				{
					"constant": false,
					"inputs": [
						{
							"internalType": "uint256",
							"name": "amount",
							"type": "uint256"
						},
						{
							"internalType": "address payable",
							"name": "recipient",
							"type": "address"
						}
					],
					"name": "withdraw",
					"outputs": [],
					"payable": false,
					"stateMutability": "nonpayable",
					"type": "function"
				}
			],
			"devdoc": {
				"methods": {}
			},
			"evm": {
				"assembly": "    /* \"Downloads/Fintech_Workspace/Module_20_challenge/joint_savings.sol\":868:3493  contract JointSavings {... */\n  mstore(0x40, 0x80)\n  callvalue\n    /* \"--CODEGEN--\":8:17   */\n  dup1\n    /* \"--CODEGEN--\":5:7   */\n  iszero\n  tag_1\n  jumpi\n    /* \"--CODEGEN--\":30:31   */\n  0x00\n    /* \"--CODEGEN--\":27:28   */\n  dup1\n    /* \"--CODEGEN--\":20:32   */\n  revert\n    /* \"--CODEGEN--\":5:7   */\ntag_1:\n    /* \"Downloads/Fintech_Workspace/Module_20_challenge/joint_savings.sol\":868:3493  contract JointSavings {... */\n  pop\n  dataSize(sub_0)\n  dup1\n  dataOffset(sub_0)\n  0x00\n  codecopy\n  0x00\n  return\nstop\n\nsub_0: assembly {\n        /* \"Downloads/Fintech_Workspace/Module_20_challenge/joint_savings.sol\":868:3493  contract JointSavings {... */\n      mstore(0x40, 0x80)\n      jumpi(tag_1, lt(calldatasize, 0x04))\n      shr(0xe0, calldataload(0x00))\n      dup1\n      0xf714ce\n      eq\n      tag_2\n      jumpi\n      dup1\n      0x43e02605\n      eq\n      tag_3\n      jumpi\n      dup1\n      0xd0e30db0\n      eq\n      tag_4\n      jumpi\n    tag_1:\n      0x00\n      dup1\n      revert\n        /* \"Downloads/Fintech_Workspace/Module_20_challenge/joint_savings.sol\":1445:2677  function withdraw(uint amount, address payable recipient) public {... */\n    tag_2:\n      callvalue\n        /* \"--CODEGEN--\":8:17   */\n      dup1\n        /* \"--CODEGEN--\":5:7   */\n      iszero\n      tag_5\n      jumpi\n        /* \"--CODEGEN--\":30:31   */\n      0x00\n        /* \"--CODEGEN--\":27:28   */\n      dup1\n        /* \"--CODEGEN--\":20:32   */\n      revert\n        /* \"--CODEGEN--\":5:7   */\n    tag_5:\n        /* \"Downloads/Fintech_Workspace/Module_20_challenge/joint_savings.sol\":1445:2677  function withdraw(uint amount, address payable recipient) public {... */\n      pop\n      tag_6\n      0x04\n      dup1\n      calldatasize\n      sub\n        /* \"--CODEGEN--\":13:15   */\n      0x40\n        /* \"--CODEGEN--\":8:11   */\n      dup2\n        /* \"--CODEGEN--\":5:16   */\n      lt\n        /* \"--CODEGEN--\":2:4   */\n      iszero\n      tag_7\n      jumpi\n        /* \"--CODEGEN--\":29:30   */\n      0x00\n        /* \"--CODEGEN--\":26:27   */\n      dup1\n        /* \"--CODEGEN--\":19:31   */\n      revert\n        /* \"--CODEGEN--\":2:4   */\n    tag_7:\n        /* \"Downloads/Fintech_Workspace/Module_20_challenge/joint_savings.sol\":1445:2677  function withdraw(uint amount, address payable recipient) public {... */\n      dup2\n      add\n      swap1\n      dup1\n      dup1\n      calldataload\n      swap1\n      0x20\n      add\n      swap1\n      swap3\n      swap2\n      swap1\n      dup1\n      calldataload\n      0xffffffffffffffffffffffffffffffffffffffff\n      and\n      swap1\n      0x20\n      add\n      swap1\n      swap3\n      swap2\n      swap1\n      pop\n      pop\n      pop\n      tag_8\n      jump\t// in\n    tag_6:\n      stop\n        /* \"Downloads/Fintech_Workspace/Module_20_challenge/joint_savings.sol\":3108:3324  function setAccounts(address payable account1, address payable account2) public{... */\n    tag_3:\n      callvalue\n        /* \"--CODEGEN--\":8:17   */\n      dup1\n        /* \"--CODEGEN--\":5:7   */\n      iszero\n      tag_9\n      jumpi\n        /* \"--CODEGEN--\":30:31   */\n      0x00\n        /* \"--CODEGEN--\":27:28   */\n      dup1\n        /* \"--CODEGEN--\":20:32   */\n      revert\n        /* \"--CODEGEN--\":5:7   */\n    tag_9:\n        /* \"Downloads/Fintech_Workspace/Module_20_challenge/joint_savings.sol\":3108:3324  function setAccounts(address payable account1, address payable account2) public{... */\n      pop\n      tag_10\n      0x04\n      dup1\n      calldatasize\n      sub\n        /* \"--CODEGEN--\":13:15   */\n      0x40\n        /* \"--CODEGEN--\":8:11   */\n      dup2\n        /* \"--CODEGEN--\":5:16   */\n      lt\n        /* \"--CODEGEN--\":2:4   */\n      iszero\n      tag_11\n      jumpi\n        /* \"--CODEGEN--\":29:30   */\n      0x00\n        /* \"--CODEGEN--\":26:27   */\n      dup1\n        /* \"--CODEGEN--\":19:31   */\n      revert\n        /* \"--CODEGEN--\":2:4   */\n    tag_11:\n        /* \"Downloads/Fintech_Workspace/Module_20_challenge/joint_savings.sol\":3108:3324  function setAccounts(address payable account1, address payable account2) public{... */\n      dup2\n      add\n      swap1\n      dup1\n      dup1\n      calldataload\n      0xffffffffffffffffffffffffffffffffffffffff\n      and\n      swap1\n      0x20\n      add\n      swap1\n      swap3\n      swap2\n      swap1\n      dup1\n      calldataload\n      0xffffffffffffffffffffffffffffffffffffffff\n      and\n      swap1\n      0x20\n      add\n      swap1\n      swap3\n      swap2\n      swap1\n      pop\n      pop\n      pop\n      tag_12\n      jump\t// in\n    tag_10:\n      stop\n        /* \"Downloads/Fintech_Workspace/Module_20_challenge/joint_savings.sol\":2742:2959  function deposit() public payable {... */\n    tag_4:\n      tag_13\n      tag_14\n      jump\t// in\n    tag_13:\n      stop\n        /* \"Downloads/Fintech_Workspace/Module_20_challenge/joint_savings.sol\":1445:2677  function withdraw(uint amount, address payable recipient) public {... */\n    tag_8:\n      pop\n      pop\n      jump\t// out\n        /* \"Downloads/Fintech_Workspace/Module_20_challenge/joint_savings.sol\":3108:3324  function setAccounts(address payable account1, address payable account2) public{... */\n    tag_12:\n      pop\n      pop\n      jump\t// out\n        /* \"Downloads/Fintech_Workspace/Module_20_challenge/joint_savings.sol\":2742:2959  function deposit() public payable {... */\n    tag_14:\n      jump\t// out\n\n    auxdata: 0xa265627a7a72315820c7ae59137d792984f6891dff3e4edd52dd9f76a631eae48d76920588b1e75c3164736f6c63430005110032\n}\n",
				"bytecode": {
					"linkReferences": {},
					"object": "608060405234801561001057600080fd5b5061014d806100206000396000f3fe6080604052600436106100335760003560e01c8062f714ce1461003857806343e0260514610093578063d0e30db014610104575b600080fd5b34801561004457600080fd5b506100916004803603604081101561005b57600080fd5b8101908080359060200190929190803573ffffffffffffffffffffffffffffffffffffffff16906020019092919050505061010e565b005b34801561009f57600080fd5b50610102600480360360408110156100b657600080fd5b81019080803573ffffffffffffffffffffffffffffffffffffffff169060200190929190803573ffffffffffffffffffffffffffffffffffffffff169060200190929190505050610112565b005b61010c610116565b005b5050565b5050565b56fea265627a7a72315820c7ae59137d792984f6891dff3e4edd52dd9f76a631eae48d76920588b1e75c3164736f6c63430005110032",
					"opcodes": "PUSH1 0x80 PUSH1 0x40 MSTORE CALLVALUE DUP1 ISZERO PUSH2 0x10 JUMPI PUSH1 0x0 DUP1 REVERT JUMPDEST POP PUSH2 0x14D DUP1 PUSH2 0x20 PUSH1 0x0 CODECOPY PUSH1 0x0 RETURN INVALID PUSH1 0x80 PUSH1 0x40 MSTORE PUSH1 0x4 CALLDATASIZE LT PUSH2 0x33 JUMPI PUSH1 0x0 CALLDATALOAD PUSH1 0xE0 SHR DUP1 PUSH3 0xF714CE EQ PUSH2 0x38 JUMPI DUP1 PUSH4 0x43E02605 EQ PUSH2 0x93 JUMPI DUP1 PUSH4 0xD0E30DB0 EQ PUSH2 0x104 JUMPI JUMPDEST PUSH1 0x0 DUP1 REVERT JUMPDEST CALLVALUE DUP1 ISZERO PUSH2 0x44 JUMPI PUSH1 0x0 DUP1 REVERT JUMPDEST POP PUSH2 0x91 PUSH1 0x4 DUP1 CALLDATASIZE SUB PUSH1 0x40 DUP2 LT ISZERO PUSH2 0x5B JUMPI PUSH1 0x0 DUP1 REVERT JUMPDEST DUP2 ADD SWAP1 DUP1 DUP1 CALLDATALOAD SWAP1 PUSH1 0x20 ADD SWAP1 SWAP3 SWAP2 SWAP1 DUP1 CALLDATALOAD PUSH20 0xFFFFFFFFFFFFFFFFFFFFFFFFFFFFFFFFFFFFFFFF AND SWAP1 PUSH1 0x20 ADD SWAP1 SWAP3 SWAP2 SWAP1 POP POP POP PUSH2 0x10E JUMP JUMPDEST STOP JUMPDEST CALLVALUE DUP1 ISZERO PUSH2 0x9F JUMPI PUSH1 0x0 DUP1 REVERT JUMPDEST POP PUSH2 0x102 PUSH1 0x4 DUP1 CALLDATASIZE SUB PUSH1 0x40 DUP2 LT ISZERO PUSH2 0xB6 JUMPI PUSH1 0x0 DUP1 REVERT JUMPDEST DUP2 ADD SWAP1 DUP1 DUP1 CALLDATALOAD PUSH20 0xFFFFFFFFFFFFFFFFFFFFFFFFFFFFFFFFFFFFFFFF AND SWAP1 PUSH1 0x20 ADD SWAP1 SWAP3 SWAP2 SWAP1 DUP1 CALLDATALOAD PUSH20 0xFFFFFFFFFFFFFFFFFFFFFFFFFFFFFFFFFFFFFFFF AND SWAP1 PUSH1 0x20 ADD SWAP1 SWAP3 SWAP2 SWAP1 POP POP POP PUSH2 0x112 JUMP JUMPDEST STOP JUMPDEST PUSH2 0x10C PUSH2 0x116 JUMP JUMPDEST STOP JUMPDEST POP POP JUMP JUMPDEST POP POP JUMP JUMPDEST JUMP INVALID LOG2 PUSH6 0x627A7A723158 KECCAK256 0xC7 0xAE MSIZE SGT PUSH30 0x792984F6891DFF3E4EDD52DD9F76A631EAE48D76920588B1E75C3164736F PUSH13 0x63430005110032000000000000 "
				},
				"gasEstimates": {
					"creation": {
						"codeDepositCost": "66600",
						"executionCost": "117",
						"totalCost": "66717"
					},
					"external": {
						"deposit()": "142",
						"setAccounts(address,address)": "269",
						"withdraw(uint256,address)": "241"
					}
				},
				"methodIdentifiers": {
					"deposit()": "d0e30db0",
					"setAccounts(address,address)": "43e02605",
					"withdraw(uint256,address)": "00f714ce"
				}
			},
			"storageLayout": {
				"storage": [
					{
						"astId": 3,
						"contract": "Downloads/Fintech_Workspace/Module_20_challenge/joint_savings.sol:JointSavings",
						"label": "accountOne",
						"offset": 0,
						"slot": "0",
						"type": "t_address_payable"
					},
					{
						"astId": 5,
						"contract": "Downloads/Fintech_Workspace/Module_20_challenge/joint_savings.sol:JointSavings",
						"label": "accountTwo",
						"offset": 0,
						"slot": "1",
						"type": "t_address_payable"
					}
				],
				"types": {
					"t_address_payable": {
						"encoding": "inplace",
						"label": "address payable",
						"numberOfBytes": "20"
					}
				}
			},
			"userdoc": {
				"methods": {}
			}
		}
	}
}